S01000006578616D706C65732E73726563B5
S11300000C942A000C9434000C9434000C943400A6
S11300100C9434000C9434000C9434000C9434008C
S11300200C9434000C9434000C9434000C9434007C
S11300300C9434000C9434000C9434000C9434006C
S11300400C9434000C9434000C9434000C9434005C
S11300500C94340011241FBECFE5D4E0DEBFCDBF25
S11300600E9419010C9426010C9400000E94A30024
S113007008950E943C0008954AE050E05FC09A0150
S11300804231510590F4682F70E04617570769F420
S1130090E6EFE40F9AB361E070E002C0660F771FE9
S11300A0EA95E2F7609569236ABBB9016251710967
S11300B06A30710590F4682F70E04617570769F4A9
S11300C0ECEEE40F97B361E070E002C0660F771FB7
S11300D0EA95E2F76095692367BBB9016C51710930
S11300E06A30710590F4682F70E04617570769F479
S11300F0E2EEE40F94B361E070E002C0660F771F94
S1130100EA95E2F76095692364BB265231092A30E7
S1130110310590F4282F30E04217530769F468ED55
S1130120640F91B321E030E002C0220F331F6A95BF
S1130130E2F72095292321BB4F5F5F4F40335105E0
S11301400CF49DCF08954AE050E069C09A01423111
S1130150510598F4682F70E04617570771F44A5018
S113016089B390E002C0959587954A95E2F79C0182
S11301702170332780FD58C059C0B90162517109FB
S11301806A307105A8F4682F70E04617570781F4A8
S1130190445186B390E002C0959587954A95E2F75D
S11301A09C012170332780FF41C021E030E03EC034
S11301B0B9016C5171096A307105A8F4682F70E0B7
S11301C04617570781F44E5183B390E002C09595CA
S11301D087954A95E2F79C012170332780FF26C05A
S11301E021E030E023C0265231092A303105A8F439
S11301F0282F30E04217530781F4485280B390E02F
S113020002C0959587954A95E2F79C0121703327A2
S113021080FF0CC021E030E009C04F5F5F4F4033E6
S113022051050CF493CF089521E030E0822F932FF1
S113023008958DE00E9439008DE00E9436008823E5
S113024019F086E082BBF8CF12BAF6CFF894FFCF4C
S9030000FC
