S00B00006932632E737265631B
S11300000C942A000C9434000C9434000C943400A6
S11300100C9434000C9434000C9434000C9434008C
S11300200C9434000C9434000C9434000C9434007C
S11300300C9434000C9434000C9434000C9434006C
S11300400C9434000C9434000C9434000C9434005C
S11300500C94340011241FBECFE5D4E0DEBFCDBF25
S11300600E948C000C94A4000C94000084EA86BFC7
S113007006B607FEFDCF81B1887F8830E1F7089589
S113008081E080B911B8089583B984E886BF06B6C3
S113009007FEFDCF81B1887F8831E1F7089583B9E8
S11300A084E886BF06B607FEFDCF81B1887F88321B
S11300B0E1F7089584E986BF06B604FEFDCF0895EE
S11300C080E282B9089505C084EC86BF06B607FEB7
S11300D0FDCF81B1887F8036B9F7089584EC86BF5F
S11300E006B607FEFDCF81B1887F8038E1F783B182
S11300F0089505C084EC86BF06B607FEFDCF81B126
S1130100887F883AB9F7089583B984E886BF81B1B6
S1130110887F803CE1F708950E9440000E946000BF
S11301200E94360081E60E94440082E60E944F004D
S11301300E945A000E9463000E946E000E9479008F
S10F014088E70E948400ECCFF894FFCF05
S9030000FC
