S01200007370695F6472697665722E73726563DB
S11300000C942A000C943F000C943F000C943F0085
S11300100C943F000C943F000C943F000C943F0060
S11300200C943F000C943F000C943F000C943F0050
S11300300C943F000C943F000C943F000C943F0040
S11300400C943F000C943F000C943F000C943F0030
S11300500C943F0011241FBECFE5D4E0DEBFCDBF1A
S113006010E0A0E6B0E0E0E3F1E002C005900D92FC
S1130070A438B107D9F70E9441000C9496000C945F
S1130080000068E080E00E944C0080E690E00E945E
S113009084000E949300F9CF882319F0813039F04D
S11300A009C087B3806B87BB81E58DB903C080E449
S11300B087BB8DB98DB188608DB96032F1F028F4B9
S11300C06830A1F0603131F00895603439F060385F
S11300D049F008958DB181608DB908958DB1826024
S11300E08DB908958DB183608DB908958DB1816006
S11300F08DB98EB181608EB908958DB182608DB94C
S11301008EB181608EB908959C0190E008C0F90118
S1130110E90FF11D80818FB99F5F779BFECF211579
S11301203105A9F7089584E790E00895F894FFCF86
S113013068656C6C6F2066726F6D2061746D6567A5
S113014061313600737472696E6720646566617527
S10701506C740000C7
S9030000FC
