S01300004C454420647269766572732E737265631D
S11300000C942A000C9434000C9434000C943400A6
S11300100C9434000C9434000C9434000C9434008C
S11300200C9434000C9434000C9434000C9434007C
S11300300C9434000C9434000C9434000C9434006C
S11300400C9434000C9434000C9434000C9434005C
S11300500C94340011241FBECFE5D4E0DEBFCDBF25
S11300600E9470010C9411020C9400004AE050E0CC
S113007087C09A0142315105E8F4E82FF0E04E17A9
S11300805F07C1F44A502AB381E090E002C0880FB0
S1130090991F4A95E2F7282B2ABB683611F0683479
S11300A021F49BB3892B8BBB08959BB38095892343
S11300B08BBB0895F90172973A97E8F4E82FF0E0C2
S11300C04E175F07C1F4445127B381E090E002C0AA
S11300D0880F991F4A95E2F7282B27BB683611F041
S11300E0683421F498B3892B88BB089598B380951C
S11300F0892388BB0895F9017C973A97E8F4E82F9F
S1130100F0E04E175F07C1F44E5124B381E090E054
S113011002C0880F991F4A95E2F7282B24BB683642
S113012011F0683421F495B3892B85BB089595B3F8
S11301308095892385BB0895265231092A303105DB
S1130140E8F4282F30E042175307C1F4485221B392
S113015081E090E002C0880F991F4A95E2F7282BAE
S113016021BB683611F0683421F492B3892B82BB29
S1130170089592B38095892382BB08954F5F5F4FA2
S1130180403351050CF475CF08954AE050E05BC04C
S11301909A014231510588F4682F70E046175707D9
S11301A061F4E6EFE40F9BB361E070E002C0660F18
S11301B0771FEA95E2F769276BBBB90162517109B0
S11301C06A30710588F4682F70E04617570761F4A8
S11301D0ECEEE40F98B361E070E002C0660F771FA5
S11301E0EA95E2F7692768BBB9016C5171096A3075
S11301F0710588F4682F70E04617570761F4E2EE42
S1130200E40F95B361E070E002C0660F771FEA95D2
S1130210E2F7692765BB265231092A30310588F493
S1130220282F30E04217530761F468ED640F92B34E
S113023021E030E002C0220F331F6A95E2F729273C
S113024022BB4F5F5F4F403351050CF4A1CF08959B
S113025068E60E94360008956CE60E943600089510
S11302600E94C5000895CF92DF92EF92FF92CF9340
S1130270C82F6A017B0168E60E94360080E090E0A6
S113028007C0E9EFF0E03197F1F700C000000196F4
S1130290AC01092E000C660B770B4C155D056E0541
S11302A07F0578F36CE68C2F0E94360080E090E0A6
S11302B007C0E9EFF0E03197F1F700C000000196C4
S11302C0AC01092E000C660B770B4C155D056E0511
S11302D07F0578F3CF91FF90EF90DF90CF90089552
S11302E08AE00E9428018BE00E9428018CE00E9491
S11302F028018DE00E9428018EE00E9428018FE0F1
S11303000E94280180E10E94280181E10E942801C5
S11303102FE78AE196E0215080409040E1F700C049
S113032000008AE00E942C018BE00E942C018CE0EA
S11303300E942C018DE00E942C018EE00E942C0171
S11303408FE00E942C0180E10E942C0181E10E9437
S11303502C012FE78AE196E0215080409040E1F79C
S113036000C000008AE00E9430018BE00E9430014E
S11303708CE00E9430018DE00E9430018EE00E94EA
S113038030018FE00E94300180E10E94300181E160
S11303900E9430012FE78AE196E02150804090408E
S11303A0E1F700C000008AE00E9430018BE00E9467
S11303B030018CE00E9430018DE00E9430018EE01B
S11303C00E9430018FE00E94300180E10E943001E0
S11303D081E10E9430012FE78AE196E021508040BC
S11303E09040E1F700C0000044EF51E060E070E0AD
S11303F081E10E94330144EF51E060E070E08AE063
S11304000E94330144EF51E060E070E08DE00E940F
S1130410330144EF51E060E070E08FE00E9433016B
S10904205FCFF894FFCF4A
S9030000FC
